S01700004763634170706C69636174696F6E312E737265635B
S11300000C943E000C9448000C9448000C94480056
S11300100C9448000C9448000C9448000C9448003C
S11300200C9448000C9448000C9448000C9448002C
S11300300C9448000C9448000C9448000C9448001C
S11300400C9448000C9448000C9448000C9448000C
S11300500C9448000C9448000C9448000C944800FC
S11300600C9448000C9448000C9448000C944800EC
S11300700C9448000C9448000C94480011241FBEB2
S1130080CFEFD0E1DEBFCDBF0E944A000C946100E7
S11300900C9400008FEF8AB98BB92FEF38E09DE301
S11300A0215030409040E1F700C000001BB82FEF12
S11300B038E09DE3215030409040E1F700C000005B
S10900C0EBCFF894FFCF22
S9030000FC
