S01700004763634170706C69636174696F6E312E737265635B
S11300000C943E000C9453000C9453000C94530035
S11300100C9453000C9453000C9453000C94D7008C
S11300200C9453000C9453000C9453000C94530000
S11300300C9453000C9453000C9453000C945300F0
S11300400C9453000C9453000C9453000C945300E0
S11300500C9453000C9453000C9453000C945300D0
S11300600C9453000C9453000C9453000C945300C0
S11300700C9453000C9453000C94530011241FBE91
S1130080CFEFD0E1DEBFCDBF11E0A0E0B1E0E0EF03
S1130090F1E002C005900D92A230B107D9F70E9499
S11300A0C6000C94F6000C940000809100018B3F74
S11300B011F49FEF4BC08C3F38F48F3709F45BC0C9
S11300C0873F09F456C008958D3F19F42EEF30E0B0
S11300D03AC08E3F09F059C02FEF9AEA25B93FE79D
S11300E04AE156E0315040405040E1F700C0000082
S11300F095B96FE78AE1E6E061508040E040E1F7BE
S113010000C00000809100018E3F41F331C0409156
S113011000014D3FA1F4A901082E01C0440F0A9427
S1130120EAF745B9FFE74AE156E0F1504040504054
S1130130E1F700C0000001968830910541F78091F5
S113014000018D3FA9F480E090E0E1CF95B9EFE4A0
S1130150F3EC3197F1F700C0000015B8EFE4F3ECCD
S11301603197F1F700C00000809100018B3F71F3DB
S11301708FEF85B9089583B7817F83BF83B781608B
S113018083BF889583B78E7F83BF08958FEF84B92B
S11301901AB89091680098609093680090917300E9
S11301A08093730085B978940E945500FDCF1F9207
S11301B00F920FB60F9211248F939F93EF93FF9397
S11301C099B1E7EAF1E63197F1F700C0000089B18F
S11301D089238F3F11F080930001FF91EF919F914C
S11301E08F910F900FBE0F901F901895F894FFCF2A
S10501F0FF000A
S9030000FC
