S01700004763634170706C69636174696F6E312E737265635B
S11300000C943E000C9448000C9448000C94480056
S11300100C9448000C9448000C9448000C9448003C
S11300200C9448000C9448000C9448000C9448002C
S11300300C9448000C9448000C9448000C9448001C
S11300400C9448000C9448000C9448000C9448000C
S11300500C9448000C9448000C9448000C944800FC
S11300600C9448000C9448000C9448000C944800EC
S11300700C9448000C9448000C94480011241FBEB2
S1130080CFEFD0E1DEBFCDBF0E944A000C946500E3
S11300900C94000080E68AB98BB180628BB92FEF93
S11300A088E09DE3215080409040E1F700C00000CB
S11300B08BB18F7D8BB92FEF88E09DE32150804079
S11100C09040E1F700C00000E7CFF894FFCFB6
S9030000FC
